:030000000201D426
:0C01D400787FE4F6D8FD75812002021B44
:03000300DFFE22FB
:10031B00AE07AF061EEF600C7FF51200037FF512E0
:05032B00000380EE223A
:09035500000103070F1F3F7FFFA9
:03034300011A019B
:1002B5008D1BE4F5A075907FEF90035593F5A07F16
:1002C5000A12031BE4F5A07590BFE51B9003559337
:0702D500F5A07F0A02031BE4
:0E034600011300011100C102C100C103C10179
:10010000E510B4031D0515E4F510E515D39408407A
:1001100011E514B40807E4F514F51580050514E499
:10012000F515E516B4031CE4F516E5157013E51492
:100130007008751408751508800975150815148060
:10014000021515E512B4030FE4F512E514B4080521
:10015000E4F51480020514E519B4030EE4F519E57D
:100160001470057514088002151430021FC20205B0
:1001700015E4F510E515D394084011E514B408070B
:10018000E4F514F51580050514E4F515300311C2E6
:1001900003E4F512E514B40805E4F514800205142F
:1001A00030001EC200E4F516E5157013E514700862
:1001B0007514087515088009751508151480021541
:1001C0001530010FC201E4F519E514700475140827
:0401D00022151422BE
:10000E00E5B0F4FF65115FF5138F1124F8602D2410
:10001E00E8601E24E0600F24C0702D0510E510C3AB
:10002E0094035024801F0516E516C39403501980BF
:10003E00140512E512C39403500E80090519E51933
:10004E00C394035003E4F511E51124F8607B24E812
:10005E00605424E0602D24C060030200FA0518E508
:10006E001870020517D3942CE51794015003020063
:10007E00FFAE17AF187C007D14120260ED4C70714C
:10008E00D202220518E51870020517D3942CE51735
:10009E009401405DAE17AF187C007D14120260ED26
:1000AE004C704ED200220518E51870020517D39435
:1000BE002CE5179401403AAE17AF187C007D141250
:1000CE000260ED4C702BD203220518E51870020564
:1000DE0017D3942CE51794014017AE17AF187C0078
:1000EE007D14120260ED4C7008D20122E4F517F572
:0100FE0018E9
:0100FF0022DE
:1002DC00120330E4F5917592FFF5957596FFF59044
:1002EC00F5A0751401751502120100AD15AF1412AD
:0402FC0002B580F4D3
:03000B00020300ED
:10030000C0E0C0F0C083C082C0D075D00812000E1B
:0B031000D0D0D082D083D0F0D0E032FB
:10033000538E7FE4F589758AF0758CD8D28CD2A95A
:03034000D2AF2217
:1001E0000202DCE493A3F8E493A34003F68001F257
:1001F00008DFF48029E493A3F85407240CC8C33320
:10020000C4540F4420C8834004F456800146F6DFEE
:10021000E4800B0102040810204080900343E47E38
:10022000019360BCA3FF543F30E509541FFEE493E3
:10023000A360010ECF54C025E060A840B8E493A3AA
:10024000FAE493A3F8E493A3C8C582C8CAC583CAD5
:10025000F0A3C8C582C8CAC583CADFE9DEE780BE8D
:0103540000A8
:10026000BC000BBE0029EF8DF084FFADF022E4CC82
:10027000F875F008EF2FFFEE33FEEC33FCEE9DEC4B
:10028000984005FCEE9DFE0FD5F0E9E4CEFD22ED91
:10029000F8F5F0EE8420D21CFEADF075F008EF2FDB
:1002A000FFED33FD4007985006D5F0F222C398FDCC
:0502B0000FD5F0EA2269
:00000001FF
